:020000041000EA
:1000000000B50C4B00219960042159610A4919601F
:100010000A490B480160002159600121996001BC27
:10002000002800D0004707480749086003C880F34C
:10003000088808470000001800031F00180200038A
:10004000F40000180001001008ED00E000000000BE
:1000500000000000000000000000000000000000A0
:100060000000000000000000000000000000000090
:100070000000000000000000000000000000000080
:100080000000000000000000000000000000000070
:100090000000000000000000000000000000000060
:1000A0000000000000000000000000000000000050
:1000B0000000000000000000000000000000000040
:1000C0000000000000000000000000000000000030
:1000D0000000000000000000000000000000000020
:1000E0000000000000000000000000000000000010
:1000F0000000000000000000000000002CEC210DBA
:1001000000200420F7010010C3010010C5010010F9
:10011000C1010010C1010010C1010010C101001097
:10012000C1010010C1010010C1010010C701001081
:10013000C1010010C1010010C9010010CB01001065
:10014000CD010010CD010010CD010010CD01001037
:10015000CD010010CD010010CD010010CD01001027
:10016000CD010010CD010010CD010010CD01001017
:10017000CD010010CD010010CD010010CD01001007
:10018000CD010010CD010010CD010010CD010010F7
:10019000CD010010CD010010CD010010CD010010E7
:1001A000CD010010CD010010CD010010CD010010D7
:1001B000CD010010CD010010CD010010CD010010C7
:1001C00000BE00BE00BE00BE00BE00BEEFF3058054
:1001D000103800BEF2EB887150AA00107CAA001003
:1001E0003402001090A31AE700201F49086006C8D7
:1001F00081F3088810471D48006800282FD10DA4FE
:100200000ECC002902D000F012F8F9E71849194A7B
:10021000002000E001C19142FCD1174988471749ED
:1002200088471749884700BEFDE701C901C29A42C5
:10023000FBD370477CAA0010C00000207427002068
:1002400030D10010000004200000042030D1001044
:10025000001004200010042000000000704709482E
:1002600004F026FA0047000008ED00E0000000D08E
:100270007827002080350020652F001055030010DE
:10028000993000105756000006005250ABB360532F
:100290002CA2001006005250861C03024CA2001033
:1002A000060052505422A29D54A200100500525044
:1002B000DE65F46830D10010F8B5C0460448054B3F
:1002C00010B5834203D0044B002B00D0984710BDDB
:1002D000742700207427002000000000064807490A
:1002E000091A8B10C90FC91810B5491003D0044B57
:1002F000002B00D0984710BD7427002074270020E1
:100300000000000010B5074C2378002B09D1FFF73F
:10031000D5FF054B002B02D0044800E000BF0123AD
:10032000237010BD8029002000000000689E00108E
:10033000054B10B5002B03D00449054800E000BF71
:10034000FFF7CCFF10BDC04600000000842900204C
:10035000689E0010F0B5D6464F464646C0B588B0F8
:1003600003A800F07BFF08220821684600F086FD04
:1003700003A800F07DFF684600F034F95B4B5C4F4A
:1003800099465C4B5C4E98463AE0FE21281C890554
:1003900004F080FD04F0FCFD0022584B04F041FC09
:1003A00004F0C4FC002800DA84E0072800DD072000
:1003B000FF23C2B2210068461B0200F077F96846AD
:1003C00000F07EF9039804F0E3FD02000B00380012
:1003D00005F04EF8049804F0DBFD02000B0030003D
:1003E00005F046F8059804F0D3FD02000B004846DE
:1003F00005F03EF8322001F0F1FE404605F038F8F5
:10040000684600F0E7FE03A800F062FFFE21039DAE
:10041000049B8905281C9A4604F088FD002841D0D9
:10042000FE25AD05FE215046890504F07FFD072419
:100430000028AAD15046324904F072FD00283BD171
:100440006800400804F0A4FD2E4A2F4B04F02EFC57
:10045000002833D053465800400804F099FD294A3B
:10046000294B04F023FC002828D0FF2368460322F0
:1004700003211B0400F01AF9FF236846042203211C
:100480001B0400F013F9FF236846042204211B0417
:1004900000F00CF9FF230322042168461B0400F03E
:1004A00005F98CE71649281C04F03AFD0028B9D05C
:1004B000134DB7E700207BE7002466E7FE21504696
:1004C000890504F0E7FC04F063FD00220B4B04F007
:1004D000A8FB04F02BFC041E04DB072800DD072426
:1004E000E4B252E70024E4B24FE7C046989E001001
:1004F000689E0010B09E0010809E001000000C400E
:10050000000080BF9A9999999999B93FF0B5D6465C
:100510004F46464604000D00C0B5814219D04B68D5
:100520000F689A46DE1B036899464A4683689B1A01
:1005300098469E4212D84068821A964230D8BA45F0
:100540003ED032003900484609F07EFC23689D19F0
:100550006560E0BCBA46B146A846F0BD002E3BD06F
:100560001F4B9E423AD8300004F076FD2368050008
:1005700099464A46A3689B1A9846BA4504D0320069
:100580003900280004F062FD4B46002B03D04146A1
:10059000484604F069FD2560AD19A5606560D8E79F
:1005A000002A0AD03900484609F04EFC23686068EA
:1005B0009946C21A6B682F689A46B918514503D1FB
:1005C00035004D446560C4E753465A1A09F03CFCB7
:1005D00023689D196560BCE70025CEE707F0F0FBB6
:1005E000FCFFFF7F70B50A2086B000F04BFFD023E0
:1005F00080221B06D2005A6226495A61264807F01B
:10060000DDFA06210500072000F00CFF0123002180
:1006100007222148009307F035FB80235B020293F9
:10062000EB1CEA011B0313431C4A052013400393F0
:100630001B4B05931B4B049302F0D6FB04F07BFC91
:10064000194904F02AFC061C04F09CFC84B2002327
:10065000002C0ED0200004F06EFC011C301C04F0B5
:1006600016FC8721C90504F02CFC04F08BFCC3B2F6
:100670001B0224041C430294074C2A00200002ABF6
:10068000002107F057FB0122012023681343236058
:1006900006B070BD089F001000002050FFFFFF9FB4
:1006A000001C0020000006700024F44A10B5046805
:1006B000480040188000015992008B5010BDC04680
:1006C000F0B5C0C8BF1BBA1093009B1819015B1886
:1006D00019025B1819045B185B009B18002B18D0DB
:1006E000736832689B1A9C469B1012D08021094A7D
:1006F000F7194902634630681D1803681C025368E5
:100700000B42FCD1043014618542F6D10C36B7425D
:10071000F0D1F0BD00002050F0B5DE464E46574601
:100720004546E0B58FB083469946101E0591069266
:1007300000D170E15B465C689B680D001A1B92104B
:1007400093009B1819015B1819025B1819045B18B8
:100750005B009B18834200D36CE15B461A68A41AC5
:10076000A1108B005B181C011B191C021B191C0417
:100770001C1964006418AB4B06991B1B994200D9E5
:1007800077E30B00A14200D248E21B1909939C4277
:1007900000D949E2059B9C1A099B002B00D008E375
:1007A00008939C464B465B68069F9A464B461B68DF
:1007B00064449846534642469E1A4B46B9460793B0
:1007C0000023029623606360A360002E00D146E2FE
:1007D000954B37009E4200D949E3300004F03CFCC1
:1007E000079B05001A685B6890469A469E1A009619
:1007F000EF1925606560A760D04504D04146280008
:10080000009A09F021FB009B9C4601235B42654452
:100810009C46E1444B4665600C34002B14D0029B8F
:10082000002BCDD14F46002525606560A660D045E0
:1008300000D10DE2320041460020013F09F004FBE7
:1008400066600C34002FEFD15B461E68059B9E420C
:1008500000D1E7E20C3B991B8B0832007349089CDE
:1008600059432E231732121B93429B41704A5B421D
:100870000A40501E824137001A4200D1BFE22300D5
:1008800033435B0700D0BAE28B0098469B080133E4
:100890005A089A4653009B18DB009946B446B14467
:1008A00000220023260038697969BC68FD68009041
:1008B000019138687968B460F560306071600098C3
:1008C0000199306171613A607B60BA60FB603A61A6
:1008D0007B61183718364F45E5D1012351460898FA
:1008E0006646844699434A0052189200B3186244FF
:1008F0008A4509D0196811605968516099689160FA
:1009000000229A605A601A6043469B0801335D00DA
:10091000ED18089BAD009C466544069A944653002A
:1009200063449A005B465C68059BAD189C4253D0BB
:10093000E21A3E4F0C3A920857431A002A435007D6
:1009400000D04BE23A4A174200D147E29C46BF0032
:10095000BA08501C8046400841000918C9008C4460
:100960002A00A94665460020A4460021B2462C0074
:100970001D685E6818605960156056609D68DE6885
:100980009860D9609560D6601D695E69186159618B
:100990001833156156611832A342E9D1012342464A
:1009A0004D469A43530005999B189B00C91864460D
:1009B0005646EB18904509D00A681A604A685A6092
:1009C0008A689A6000238B604B600B60BF08013718
:1009D0007B00DB199B00ED18A6420CD03068002884
:1009E00000D130E1B3680C36191A04F03DFBB44273
:1009F000F4D15B461C68002C05D05B469B68200048
:100A0000191B04F031FB5A46089B09989C4628C2E2
:100A10005B46604498600FB0F0BCBB46B246A94646
:100A2000A046F0BDAAAAAA0AFCFFFF7FABAAAA2A89
:100A3000FCFFFF3F5B464A460A934B461168002283
:100A40005B680B925E1A0C920D928B4200D1F5E01E
:100A5000DC4B9E4200D90AE2300004F0FDFA5B460E
:100A60005C684B460ACB5A1A07009046BE190B9792
:100A70000C970D96994203D04246380009F0E4F9EC
:100A80004346FA18059B0C92E31A98108100091846
:100A900002930B01C9180B02C9180B04CB185B0099
:100AA00006991B18994200D3DEE08C464A00624446
:100AB00093009A46E61AA6426FD022000C3A921B87
:100AC0009308C14A21005A43002318318E425B41EA
:100AD0005046190018231B1A581E0343DB0F300021
:100AE0000B4307212043014048424141A4463700BF
:100AF000194200D198E1B54B1A4200D194E192001D
:100B00009208531C5A08069353009B18DB00994621
:100B1000514600220023B246B1440794099108953A
:100B2000B468F56800940195346975693068716836
:100B300002940395644620606160009C019D6146BB
:100B40008C60CD60029C039D0C614D61182188462C
:100B50003A607B60BA60FB603A617B611837183697
:100B6000C4444F45DCD1099B0698564601009A467D
:100B7000012399434A00079C52189200B318089D1C
:100B8000A218884209D019681160596851609968A3
:100B9000916000229A605A601A6053465A46E318E0
:100BA0005360059BF21A91108B005B181F01DB1933
:100BB0001F02DB191F04DF197F007F18002A17DDD1
:100BC000002398460C3E33680C3C20682360736811
:100BD000A1686360B368A360434633607360B36029
:100BE000002802D0091A04F03FFA013F002FE9D192
:100BF000059B1C0054449C4207D00BAE28003100DA
:100C00000C35FFF783FCAC42F8D10B98002800D1DB
:100C100001E70D99091A04F027FAFCE623001B19D5
:100C200009939C4200D8B5E5059B9C1A684B1800B7
:100C3000099304F011FA03000890B2E5002200269F
:100C40009046002712E70C36B44200D0C6E6D0E644
:100C5000013F66600C34002F00D0E5E5F4E5002389
:100C6000002700250093C3E52600C81A99422ED01C
:100C70000023A9469A46A04605001CE0514B9C4221
:100C800000D9F4E0200004F0E7F907003C19B46053
:100C9000376077600B990C9B5C1A994203D0220055
:100CA000380009F0D1F83F19013D77600C36002D6E
:100CB0000BD00C9A0B9F5346D41B33607360B36008
:100CC000BA42DBD100240027E0E744464D46059BAD
:100CD0009C4200D1C8E019001F00E31A3A4A0C3BBD
:100CE0009B0853432E221731891B8A429241374970
:100CF00052421940481E8141114200D1A4E03A00FD
:100D00003243520700D09FE09B009B080133994675
:100D1000B8465A0853009B185946DB00CB46984406
:100D200000220023AA46B146A44606913869796993
:100D300000900191BC68FD6838687968B460F5601E
:100D40003060716000980199306171613A607B6038
:100D5000BA60FB603A617B61183718364745E5D1C8
:100D60004E46D946069B4A469B4601239A4353006A
:100D700005999B189B00C91864465546F318914580
:100D800009D00A681A604A685A608A689A60002323
:100D90008B604B600B60029B9C465B4666445E60CA
:100DA0000BAE280031000C35FFF7B0FBA542F8D19F
:100DB0002BE7084A93420FD85A00D3189B0018001B
:100DC000099336E7FCFFFF7FABAAAA2AFCFFFF3F8F
:100DD000F8FFFF7FAAAAAA0A1300EDE72A00002164
:100DE0001868196010605868596050609868996078
:100DF0000C3390600C329C42F2D1BF00E6E5002239
:100E0000089B05983C681C607C685C60BC689C60C2
:100E1000BA607A603A600C370C33B842F2D18B007A
:100E2000984671E5089D78E523000022396819602D
:100E300079685960B9689960BA607A603A600C372D
:100E40000C33BC42F2D1A8E63300002239681960A5
:100E500079685960B9689960BA607A603A600C370D
:100E60000C33BC42F2D196E75B465E60CDE606F0FD
:100E7000A7FF014806F0CCFFBC9E0010F0B5002390
:100E8000C646040000B50E00036000214360836085
:100E9000002084B09446009001910293002A36D03D
:100EA00093009846180004F0D7F843464246C71806
:100EB000002105000090029704F0C2F863682068E2
:100EC0009846191A89108A0052181301D218130271
:100ED000D2181304D3185B005B189C4601979E42FE
:100EE0001CD826D272009619B6008619464520D025
:100EF00035002868002825D0AB680C35191A04F095
:100F0000B3F8A845F5D1029F009D66600FE00092FE
:100F100002920192002E10D000239846634641466B
:100F2000F21A20006B46FFF7F7FB029F009D002D91
:100F300003D02800791B04F097F8200004B080BC8F
:100F4000B846F0BD0C354545D3D1DCE7F0B54E468B
:100F5000DE46574645468B46E0B583680568160071
:100F60005F1BBA1093009B1819015B1819025B18DC
:100F700019045B185B009B18814687B05B4500D263
:100F800083E04468611B89108A0052181301D2184B
:100F90001302D2181304D3185B005B189B4548D981
:100FA000A54214D0280031000C35FFF7AFFAAC424F
:100FB000F8D14B4618CBE11A89108A005218130158
:100FC000D2181302D2181304D3185B005B185A46C8
:100FD000D21A9B4556D033687568ED1A00239A469D
:100FE000794B9B4633001600984619E05D4500D9C1
:100FF000E0E0280004F030F8070043467D19A560C2
:10100000276067600ACB5D1A994203D02A00380036
:1010100008F01AFF7F19013E67600C34002E31D0B2
:10102000534623606360A360002DDFD100250027B5
:10103000E3E75B46002B0ED05F005F44BF00EF1973
:10104000BD4208D0280031000C35FFF75FFAAF42EF
:10105000F8D14B465C68A5420DD02E0030680028C0
:1010600000D19DE0B3680C36191A03F0FDFFA642CB
:10107000F4D14B465D6007B0F0BCBB46B246A94612
:10108000A046F0BD4B465C60F5E7504B9B4500D950
:1010900092E05B46002B00D187E05C005C44A4003A
:1010A000200003F0D9FF844600233168644404948F
:1010B000884604009A46726805900292571A039671
:1010C0005346019723606360A360002F5DD03E4BC1
:1010D0003E009F426ED8380003F0BEFF039B050020
:1010E0001A685B6890469F1A02930097029BAE199C
:1010F00025606560A660984504D041462800009AA6
:1011000008F0A2FE009B9C4601235B4265449C467E
:10111000E3445B4665600C34002B16D0019B002B2A
:10112000CED10C255B4600265D436519029B2660E7
:101130006660A760984542D03A004146002008F01A
:1011400083FE67600C34AC42F0D14B461D689B684F
:101150005F1B4B46059A5E681A60049A5C609A6051
:101160002C00AE4209D02068002813D0A3680C34AC
:10117000191A03F079FFA642F5D1002D00D17AE7C4
:101180003900280003F070FF75E7002300260025D2
:101190000093ABE70C34A642E5D1002DF0D16AE70D
:1011A0000C36A64200D059E763E7002300240593DC
:1011B0000493CEE706F004FE054806F029FE6760BA
:1011C0000C34AC42B2D1C0E7FCFFFF7FAAAAAA0A46
:1011D000D49E001001684368F0B55A1A921093002B
:1011E0009B18050018011B1818021B181C041C1959
:1011F00048C9F61A174B640085B0A4189E4226D839
:10120000002300220092019300230293002E1AD0A3
:10121000300003F021FF871900900297B84203D0F5
:101220003200002103F00CFF28006A4621000197DC
:10123000FFF78CFE0098002803D00299091A03F0EA
:1012400013FF05B0F0BD002700960296ECE70248B8
:1012500006F0DEFDFCFFFF7FD49E00101823C36064
:101260000833037400230360436083607047C04603
:1012700030B585B0040004F007F9134D1349280078
:1012800006F0B4FB0321022000F0CCF80321032078
:1012900000F0C8F800220121022000F0DBF8002253
:1012A0000121032000F0D6F86A46237C280013733E
:1012B000972353730023217B009303AA023306F084
:1012C000BFFB012005B030BD001F0020801A0600C2
:1012D000F0B5CE4647460D25282380B585B06D4430
:1012E0004E4E2B70273B0400017B2A0000933000F8
:1012F0009846002706F0A4FB0E22217B6A440123B6
:101300003000009706F004FC012399464A462B78EA
:10131000217B13432B7043462A000093300006F0D4
:101320008FFB0F22217B6A4401233000009706F0D7
:10133000EFFB6B466A46DB7B907B1B02184300B2D7
:1013400003F0FEFD364903F0A8FD2A232B70434627
:101350002A00217B20600093300006F071FB0E22F2
:10136000217B6A4401233000009706F0D1FB4A46F6
:101370002B78217B13432B7043462A0000933000C7
:1013800006F05EFB0F22217B6A44012330000097A8
:1013900006F0BEFB6B466A46DB7B907B1B02184364
:1013A00000B203F0CDFD1E4903F077FD2C232B7016
:1013B00043462A00217B60600093300006F040FB2A
:1013C0000E22217B6A4401233000009706F0A0FB27
:1013D0004A462B78217B13432B7043462A00009307
:1013E000300006F02DFB0F22217B6A4401233000E0
:1013F000009706F08DFB6B466A46DB7B907B1B02F9
:10140000184300B203F09CFD054903F046FDA060BF
:1014100005B0C0BCB946B046F0BDC046001F0020B4
:10142000FFFF7946094A830094464022634410B581
:101430001C68C0006240C024144080225201134343
:101440001C60034B9C466044416010BD04C00140D9
:10145000004001400A4B80009C4604236044002960
:1014600001D00C230821002A00D10B000268534050
:101470000C221A4080235B01184302607047C0466B
:1014800004C001400123D02283401206936293617D
:10149000094A83009446402263441968C0004A40C8
:1014A000C02111408022520113431960034B9C4616
:1014B000052360444360704704C001400040014080
:1014C000024B18688007C00F7047C04600C0064036
:1014D000EFF3108072B6034A1368002BFCD0BFF301
:1014E0005F8F70472C0100D0BFF35F8F0022024B4B
:1014F0001A6080F3108870472C0100D070B5EFF3AC
:10150000108C72B60D4D2B68002BFCD0BFF35F8F93
:101510000724CB08C618C05C01230C40A3401C0064
:101520000440034207D103433370BFF35F8F2C6045
:101530008CF3108870BD100001F0B2FD2C0100D0BA
:10154000F8B54746CE46884680B5EFF3108C72B6A4
:10155000214D2C68002CFCD0BFF35F8F9A422CD811
:10156000D4080727055D061901241740BC402C420A
:101570001FD007210127894609E0D408055D061917
:101580004C4639001440A1400C00294211D00132D0
:101590009342F2D201204042BFF35F8F00220E4BF4
:1015A0001A608CF3108800280FDBC0BCB946B04627
:1015B000F8BD2C4310003470EEE7BFF35F8F0023BB
:1015C0002B608CF31088012040424346002BECD066
:1015D000089801F065FDC0462C0100D00021044BA5
:1015E000044ABFF35F8F02C39342FAD17047C046EB
:1015F000000100D0800100D0044A1078431CDBB207
:10160000172B00D9102313707047C046001E00200E
:1016100000B5054B83B00100009318221F23034837
:10162000FFF78EFF03B000BD209F00106C2F00203D
:1016300001238340002904D0034A1360034A136046
:101640007047034A1360FBE780E200E000E100E03E
:1016500080E100E001238340014A13607047C046E7
:1016600000E200E0084B10309B688000C358002B5C
:1016700007D0064A00209B1A2F229A424041C0B24E
:1016800070470020FCE7C04600ED00E0041E00208B
:10169000024B10309B688000C058704700ED00E09E
:1016A00070B50D00EFF3108672B60F4A1368002B69
:1016B000FCD0BFF35F8F0D4B10309B6884001B592B
:1016C0000B4A934203D09D4201D001F001FD074B2C
:1016D0009B681D51BFF35F8FBFF35F8F0022024BEA
:1016E0001A6086F3108870BD240100D000ED00E080
:1016F000CD010010F0B557464E46DE464546E0B5F2
:1017000085B0060002911700EFF3108B72B6674A9E
:101710001368002BFCD0BFF35F8F0025644B5D572F
:101720009A46002D00DAA4E06B00624C03935B192B
:101730009B009846A146C1444B4652469B791036C1
:1017400013705D4BB2009B68019299580B1B2F2BB5
:1017500034D95A4B994200D0A4E0039B584A9C4686
:10176000584B6544AD006353434602336519E41892
:10177000554B0121043B1B1B1B055B0D13436B8069
:10178000524BEF71AB80FF23AB71029BAB604B46BA
:101790000B431900484B019A9B689950BFF35F8F28
:1017A000BFF35F8F0022414B1A608BF3108805B0A6
:1017B000F0BCBB46B246A946A046F0BD01200A00D7
:1017C0008243D379BB422FD845464E461300404949
:1017D0001B1B5B415943090D3A4B63533A4B02358E
:1017E0006519043B5B1B1B05354D5B0D2B4373805B
:1017F0000426B446E0444444131F1B1B4C46A1710D
:1018000002991B05A16049465B0D2B43A380314B18
:10181000E77101431360BDE75800C018800020182D
:10182000C679BE422BD902000623D356002BF3DA29
:10183000101D82462848804604267642B446E1447C
:1018400050464E46361A3005400D824656461C48D4
:10185000957106439680039A944665441D4AAD00EF
:10186000641922604246A371029BA280E771A360C3
:1018700090E701F02DFC002553465D5754E7101DFD
:10188000824690884005001584464046D44466460A
:1018900004302018301AE0260005400D360230438F
:1018A0008046C9E701F014FC57E7C046240100D088
:1018B00079350020041E002000ED00E0CD0100106D
:1018C00000E0FFFF00A1FFFF341E002001BDFFFF6D
:1018D000AAAA00000148804701BD0000F0B5DE461D
:1018E00057464E464546E0B50C0083B0EFF31089ED
:1018F00072B6584A1368002BFCD0BFF35F8F564B6B
:101900009A68030010339F00D559544A9046954277
:1019100032D0A54243D0524EAA1B2F2A2CD80122E6
:101920008240924651464F4A1268114001915146F9
:101930004D4A1160BFF35F8FEFF305829346002A93
:1019400033D101232A009A4393689C4208D177E05F
:101950004B005B189B00F3189968A1422AD01A002B
:10196000062151560029F3DA019B002B19D052466B
:101970003E4B1A603B4B1A60374B9B68DD51BFF3FF
:101980005F8FBFF35F8F0022324B1A6089F310889C
:1019900003B0F0BCBB46B246A946A046F0BD150058
:1019A000EAE75246304B1A60E6E79342C9D001F0AD
:1019B0008FFBC6E706215956002921DB4A00501843
:1019C000800034188046A0689860E079D8710620BD
:1019D00020569871002824DBA488F01A6405241589
:1019E00044440019E0240005400D2402204398805F
:1019F00052181F4B9200B6181A781970B271B3E7DB
:101A0000594600290FD1FF3191711A499180184927
:101A10000A789A71184A9B1B5B415A43120D0A704F
:101A2000A2E71648E3E7164A1649D21A083A5002C6
:101A3000400D01439980144952080A43DA8093E724
:101A40000621515613000029B8DA5A46002AEAD175
:101A50004546DCE7240100D000ED00E0CD01001098
:101A6000041E002000E100E080E100E080E200E0F0
:101A70007935002001BDFFFFAAAA000001BD0000CA
:101A80003E1E002000F0FFFF00F8FFFF70B5EFF3EF
:101A9000058101240443EFF3108C72B6214A1368C8
:101AA000002BFCD0BFF35F8F1F4B05001F4AED1AC0
:101AB0006D416A43120D1E4D8900AE6852B27658D0
:101AC000A6421CD00621595691421CD012215956CB
:101AD000914222D01E215956914220D02A21595696
:101AE0000324914210D0134B19781A708171BFF3FF
:101AF0005F8F00220B4B1A608CF3108870BDAB68AF
:101B00000D4C5C50EFE700246100091989005B1857
:101B1000FF21997109499980E5E70124F4E702243E
:101B2000F2E7C046240100D0041E0020AAAA00004B
:101B300000ED00E079350020CD01001001BDFFFF70
:101B4000054B064A1360064A136053609360D360E6
:101B500013615361936170478080808000E400E0EE
:101B600004E400E000B5074B83B0010000930022BD
:101B700005230548FFF7E4FC002801DB1F23181AA2
:101B800003B000BD3C9F00107E350020024B9C46F8
:101B900061448900016070474000003410B50400C2
:101BA000FFF72AFD01002000FFF7F0FFFF2323715C
:101BB000BFF35F8F10BDC04610B50400FFF71CFDDA
:101BC00001002000FFF7E2FFFF23A380BFF35F8F38
:101BD00010BDC04610B504000120FFF719FD044BED
:101BE0009C46604480002060BFF35F8F10BDC046FC
:101BF00040000034034B9C46614489000160BFF300
:101C00005F8F70474000003483680B4810B58446EE
:101C100061446244090112019A18591854684B68CA
:101C200001209C4201D802D00020C0B210BD126831
:101C30000B689A42F9D8F7E7FFFFFF0F0A4B1968C4
:101C4000EFF3108072B60A68002AFCD0BFF35F8FF2
:101C50001B68BFF35F8F00221A6080F3108840BFBB
:101C6000002000217047C04640350020F8B5574697
:101C70004E464546DE46E0B599460CAB1C780DABAA
:101C80001B78060090469A460768002C11D1BC7B51
:101C9000002C42D065003B682D19033D59194B7843
:101CA000BB73002B00D1FB7300238B704B700B7048
:101CB00004E065003B682D19033D5919B2682A4BB1
:101CC00094464246E3181B0163441A604A465A6030
:101CD0000A9A9A600B9ADA6000238B704B700B7033
:101CE0007B7B9B46002B2BD022005946B8687B6833
:101CF00098473A68002816D05B4658465B005B441C
:101D00005519033BA870D118D35C002B00D06B7021
:101D10005B460C707B73A34513D0F0BCBB46B24648
:101D2000A946A046F8BD5B465B005B44033BD31865
:101D30009C705119525D002A00D05A705B460B709E
:101D40007C7342464B46307D00F0C0FB051E06D03A
:101D50005346002B03D12100306800F0DBFD0E9BC1
:101D6000002BDAD01D70D8E7FFFFFF0FF0B5DE467D
:101D700057464E4645460023E0B58BB00893674B67
:101D80008200D45800239B46099000F015FB62683E
:101D900006000F00EFF3108572B61368002BFCD01D
:101DA000BFF35F8F23689C465B7B9946002B00D175
:101DB00069E0A2685A4B90464B441B019844434645
:101DC0001A685B6810001900801BB941002900DC0B
:101DD00063E0099800F07AFB002300229846002374
:101DE0000692079300239A466368BFF35F8F5A46B3
:101DF0001A6085F310885346002B08D10028C4D1FF
:101E00000BB0F0BCBB46B246A946A046F0BD089B4D
:101E1000414618024B461843D047626806000F003F
:101E2000EFF3108572B61368002BFCD0BFF35F8F01
:101E3000002F50DB33003B4302D02369002B61D1DC
:101E40002368D97B002907D04A00521819688C46AC
:101E500049466244033A51709A7B002A01D14A46AE
:101E60009A734A46DA734B46E168013BCA5C013219
:101E7000CA545B4623616368BFF35F8F5A461A609A
:101E800085F3108881E700230022984600230692FC
:101E90000793002300209A46A6E7002902D10028D4
:101EA00000D096E70021604600F0B2FC43461A6875
:101EB0005B680692079343469B689A464346DB68F5
:101EC0009846E3684B44013B1B7808931B0203438D
:101ED0002361002088E72369002BB1D0069A079B75
:101EE000921BBB41002B15DB594604910121039144
:101EF0004946029141460191514620000091FFF769
:101F0000B5FEB6E700F058FA32003B0012184B411C
:101F1000002BE9DA0122034B5242E5E7243400208A
:101F2000FFFFFF0FFFFFFF7F10B5144C6368002B0E
:101F300004D00A211248FFF729FE10BD2300114AE0
:101F40001021206800F07EFB032000F029FA032016
:101F500000F026FB03200C4900F072FAFFF74CFB5F
:101F60000A4B9C4603232375D0231B061B68604441
:101F70006375074B80006060DC60DAE74C1E002070
:101F800040350020091C00106D1D00104000003479
:101F900024340020004870474C1E0020F0B54E4607
:101FA0004546DE465746E0B585B0019310AB1B7839
:101FB0000600039300239946984600927268EFF357
:101FC000108B72B61368002BFCD0BFF35F8F35689F
:101FD000AC7B002C3DD067002B683F19033FDB1919
:101FE0005A78AA73002A00D1EA73B168474A8C462E
:101FF00000980199A21812016244106051600E9974
:1020000091600F99D16042469A705A701A706B7B3A
:102010009A46002B67D022001900A8686B68984781
:102020002A68002852D0534650465B005344D719C3
:10203000033BB870D118D35C002B00D07B705346A3
:102040000C706B7354454FD0F3681B19013B187823
:1020500000E000207368BFF35F8F42461A608BF385
:102060001088002C4FD04B46002B08D10002204393
:1020700005B0F0BCBB46B246A946A046F0BD039BE6
:10208000002B3ED00E9B00200F99984703000400C0
:102090000D000B4335D000290ADA009A019B121B70
:1020A000AB4100920193002B0ADB039B994685E725
:1020B00000F082F924184D4100940195002DF4DAC6
:1020C0000123134C5B4200930194EEE753465B00FF
:1020D0005344033BD3189C70D119D25D002A00D021
:1020E0005A7053460B706C73307D009A019B00F060
:1020F000EDF981460028A7D02100306800F00AFCE5
:10210000A2E70020B4E701204042B1E7FFFFFF0F44
:10211000FFFFFF7F407D7047F0B504000D000626ED
:102120007642F717C64636196F4100B584B08F4224
:1021300014D811D000F040F932003B00121A8B4144
:10214000002B15DC002B3ED02000290000F068F9A0
:1021500004B080BCB846F0BD8642EBD9002600270B
:1021600000F02AF932003B00121A8B41002BE9DD06
:10217000002302930193154B3200009314483B0057
:10218000FFF70CFF0028DFDB00239846BC46114A0E
:10219000114F7B6A9C4504D8B96A8E42D4D99C45BC
:1021A000D2D11168EFF3108072B60B68002BFCD00F
:1021B000BFF35F8F1368BFF35F8F4146196080F3F1
:1021C000108820BFE5E7002ABED0D1E73D1C0010F3
:1021D0004C1E0020403500200040054070B5060030
:1021E00000F0EAF8FA2204000D000023300000217C
:1021F000920002F02FFE00196941002902DBFFF76F
:102200008BFF70BD012001494042F8E7FFFFFF7FCF
:10221000F0B5EFF30583CE46474680B505000C00C8
:1022200085B0002B12D02C4A0020536A9C4203D860
:10223000926A0130AA4204D305B0C0BCB946B04688
:10224000F0BDE01A421E9041C0B2F5E7234E029362
:102250000193234B0200009330000B00FFF79EFE1A
:10226000031EE0DD20BF7168EFF3108772B60A68C5
:10227000002AFCD0BFF35F8FDAB294463068427B0D
:1022800062451DD0FF221A405100894601689144E1
:1022900088464946414403398978002913D0F168BA
:1022A0001B0A88464244013A1278DBB29A420FD0A8
:1022B0007368BFF35F8F00221A6087F31088B2E75C
:1022C000FF221A40EBE732699342F1D13161EFE727
:1022D000614600F01FFBEBE7004005404C1E00206C
:1022E0003D1C0010F0B5EFF30582D6464F4646463A
:1022F0001000C0B51038EFF3108872B6214C236877
:10230000002BFCD0BFF35F8F0123190081401E4DCD
:102310001F006963AA461D4D29601D4D2E78AC46ED
:102320003500C5402F402B4209D1BFF35F8F276096
:1023300088F31088E0BCBA46B146A846F0BD5346C3
:10234000144D5F6A83005D59AF420ED3124A8E432B
:102350009B5862461670BFF35F8F0022226088F39D
:102360001088002BE6D09847E4E70C4B92009C467F
:10237000624413681360BFF35F8F0023236088F308
:102380001088D7E7280100D0004005403C70054088
:102390007D3500204C3500204C2E0020D03F0540DC
:1023A00010B50100024A0348FFF7A8F810BDC04667
:1023B000589F001078350020034B596A0A00986A2C
:1023C000596A8A42FAD170470040054070B504004E
:1023D0000D00124A536A1900966A536A8B42FAD169
:1023E0003000190024184D41AB4211D80ED02B00FB
:1023F0000A494A6A9A42FCD307D1084A02E0516A64
:10240000994202D1916AA142F9D370BDA642EED998
:10241000012301246442E5175B42E9E700400540DF
:10242000064A536A9942FCD807D1044B02E05A6A23
:10243000914202D19A6A8242F9D370470040054026
:1024400070B504000D00EFF3108672B61A4A1368D7
:10245000002BFCD0BFF35F8F002D1BD02000FFF7B7
:1024600017F9164981420AD02000FFF719F9012116
:102470002000FFF7DDF80123A340114A1360114B40
:10248000A400E550BFF35F8F00220B4B1A6086F368
:10249000108870BD0B4BA200D5500122A2400A4902
:1024A00020000B7893430B700449FFF717FA0021C3
:1024B0002000FFF7BDF8E5E7280100D0E522001075
:1024C000386005404C2E00207D350020F0B54F4689
:1024D000D6464646C0B507002C4C616A0D00A66A78
:1024E000616AA942FAD18B4208D805D00120E0BC2C
:1024F000BA46B146A846F0BDB242F7D9EFF3108A0A
:1025000072B6234801680029FCD0BFF35F8F012514
:10251000BD4020491D4C8846097889462943C9B2E7
:102520008C46414660460870391D1B48890065632A
:102530000A51B9000B50216A0020294219D0616A62
:102540000800A66A616A8142FAD18B4219D801D18A
:10255000B24216D8CC4516D00C4B1F201D625D63CD
:1025600001230740BB400D4A1E38136043464A46CC
:102570001A70BFF35F8F0022054B1A608AF3108830
:10258000B5E70020F5E70120F3E7C046004005402D
:10259000280100D07D3500204C35002080E200E08D
:1025A000EFF3108C72B60A490B68002BFCD0BFF316
:1025B0005F8F01238340074A0748136202789A43DA
:1025C0000270BFF35F8F00230B608CF3108870479D
:1025D000280100D0004005407D35002070B5050081
:1025E00014001600002915D00C00002A12D08068B3
:1025F0006B689847296800280ED073009B19620009
:10260000033B1219CB18033A9C7088188A5C002A85
:1026100015D10670200070BD63001B197200033BCA
:102620009219CB18033A9E7088188A5C002A02D14E
:1026300004703400EEE75A7004703400EAE75A7010
:102640000670E7E730B583600023CCB243730133F3
:10265000047342608373C4730D000068012C06D9B3
:10266000421C0133DBB2137003329C42F9D1FF21CB
:1026700029404B005918002340180338437030BDDF
:10268000F8B5CE46474606000C0080B5002907D0B5
:102690004D0003686D18033D5A195778002F04D177
:1026A0002000C0BCB946B046F8BD7900C91903394D
:1026B000884643445978894600215970517073689F
:1026C0003A002100806898473368002814D04246B9
:1026D0009A18947059195B5D002B00D053700F70DD
:1026E000270049463000FFF7CBFF390002003000D9
:1026F000FFF774FF0400D3E7424641465D19AF700F
:102700009A185B5C002B00D06B701470E9E7C04630
:10271000F0B557464546DE464E46E0B50D006B0027
:1027200001685B19DF1E0400C85D83B00192CA19FD
:10273000002850D043001B18033BCB185E78B446EA
:10274000002E1AD1019E002E42D0E67B002E04D02E
:1027500073009B19CB18033B5D70A37B002B00D14A
:10276000A573E57300282FD10023537003B0F0BC8C
:10277000BB46B246A946A046F0BD72006244033A89
:1027800089184A78904600224A7091465A70010092
:1027900032002000FFF722FF43468246002B07D07D
:1027A0005B0021684344033BCB185A78002A16D1BA
:1027B000424651462000FFF711FF2168019BCA19CC
:1027C000002BC2D10028CFD043001B18033BCB18ED
:1027D00000219970C8E7019B002BB6D1C4E75000D7
:1027E000801803380918487883464846487058705E
:1027F00041462000FFF7F2FE594680462000FFF7D1
:102800003FFF414602002000FFF7E8FE8046CFE789
:10281000F0B557464546DE464E46E0B583B00191D9
:10282000457B04006B0000685B19DF1EC15DC219A7
:10283000002952D04B005B18033BC3185E78B446A6
:10284000002E1CD1019E002E44D0E67B002E04D029
:1028500073009B19C318033B5D70A37B002B00D151
:10286000A573E573002931D10023280053706173EB
:1028700003B0F0BCBB46B246A946A046F0BD72000C
:102880006244033A80184278904600224270914692
:102890005A7020003200FFF7A1FE43468246002B0B
:1028A00007D05B0021684344033BCB185A78002AC9
:1028B00017D1424651462000FFF790FE019B0100D0
:1028C0002068C219002BC0D10029CDD04B005B1865
:1028D000033BC31800209870C6E7019B002BB4D1BE
:1028E000C2E75000801803380918487883464846E4
:1028F0004870587041462000FFF770FE59468046E8
:102900002000FFF7BDFE414602002000FFF766FEF3
:102910008046CEE770B5040000292CD0437B8B4263
:102920002ED0056848004018033828188278002AFD
:1029300021D053009B18033BEA5CEE188A4202D177
:102940001BE0002A08D053009B18033BEB185A7871
:102950008A42F6D142785A70002301228370437074
:102960002000FFF7D5FE617B02002000FFF736FE56
:102970006073012000E0002070BD43783370EBE706
:1029800001221900FFF7C4FE60730120F4E7C0467E
:10299000F8B5CE464746040080B506200E0000F08C
:1029A00023FA051E51D0524B5249E21853425A4164
:1029B0008023DB039C4692054F4B62441A604F4BC9
:1029C0001A6010008B689843FBD1494B8021E318B3
:1029D0005A4253414A4A5B0049009952062000F08E
:1029E00003FA3100C00001F0BDFEC30932D140221C
:1029F000012190466162A362256BEB0736D4270064
:102A00008026E36A00232C3776013E43336006209C
:102A1000256300F0E9F94146800001F0A3FE236B35
:102A200005009846DB073BD46022E36A5A406E23D8
:102A30001340336043462363802310229B013B43B2
:102A40001A60304B23630323A3642800C0BCB9463B
:102A5000B046F8BD2C4A93423FD900232B492C4A5B
:102A60006162A362256B9046EB07C8D52200C023A4
:102A700030329B011343234A06201A60666AA26A19
:102A8000B601B61800F0B0F9224901F06BFEB602AB
:102A90000100300001F066FE0021FFF797FCAEE771
:102AA0002200C02330329B011343164A06201A60CD
:102AB000636AA26A9B019946914400F095F94B46DE
:102AC00014499B02994601F04DFE0100484601F071
:102AD00049FE0021FFF77AFCA6E77F22990188468C
:102AE00010400130400819008044030082E7C046CE
:102AF0000080FCBF00C0004000E0004000F000404B
:102B00005C35002001030000FEFF0000FFFF000015
:102B1000C0FF3F004E0E000030B50C2083B000F027
:102B2000B9F9FEF7CDFC00280ED0994B994A1A60EE
:102B30005A609A60DA601A615A619A61DA611A62BF
:102B4000954A5A6203B030BD944CA06700F0F6F984
:102B50000122934B1A60636C012BFCD10322914B31
:102B60001A608E4A936B012BFCD1013301218E4AEE
:102B70008E480093043300F03DF905238C4A0093FE
:102B800001218C4800F036F98B4B5A68FF2A02D895
:102B9000802252005A6080227D4C824B21691201B2
:102BA000854D1A60002907D0606901F0DBFD431CE8
:102BB0005800C0180338FDD2E0217F4B02201A686C
:102BC0001140802252012A431160196848400321B4
:102BD0000140116004219A681142FCD080228021BA
:102BE00092012A4309011160802252005A60734BFE
:102BF0002361734B5968FF2900D85A600321684A42
:102C00006F4B116002399A681142FCD0E0201A68BB
:102C10001040802252011A43106018684840032176
:102C200001400220116066498A681042FCD080226F
:102C300092011343802212011A608022614B5200DC
:102C40004A606361604B5968FF2900D85A6080224E
:102C50005E4BE16912015C4D1A60002907D0606982
:102C600001F080FD431C5800C0180338FDD2E0225B
:102C700055490B681A4080235B012B431A6080235F
:102C800080229B012B4312011A608022414B52008B
:102C90004A60E3614E4B5968FF2900D85A60802290
:102CA0004C4B216A12014A4D1A60002907D0606915
:102CB00001F058FD431C5800C0180338FDD2E02233
:102CC00043490B681A4080235B012B431A60802321
:102CD00080229B012B4312011A60802380225B001B
:102CE0004B602C4BD20223623B4B5968914200D27D
:102CF0005A608022394B616A1201374D1A600029EF
:102D000007D0606901F02EFD431C5800C01803383D
:102D1000FDD2E02230490B681A4080235B012B432F
:102D20001A60802380229B012B4312011A608023AA
:102D3000DB024B60184B6362294B5A68FF2A02D8AA
:102D4000802252005A608022264BA1691201244D34
:102D50001A60002907D0606901F004FD431C580087
:102D6000C0180338FDD2E0221D490B681A408023A9
:102D70005B012B431A60802380229B012B431201AD
:102D80001A6080235B004B600E4BA361DAE6C046FD
:102D9000702F0020006CDC021BB700000080004098
:102DA0003CB0004030B00040002F68590080024025
:102DB000008C864700C0024030800040001BB700F6
:102DC0003C800040405973075480004054B000409C
:102DD0006080004060B000406C8000406CB00040FB
:102DE0004880004048B00040014B8000C058704708
:102DF000702F0020F8B5040021481D0017000E00B8
:102E000001F0B0FC0100380001F0ACFC069B290485
:102E10001B0319432368002B20DB1A4B1A4DE218C1
:102E200053425A4180235B019C461203174B624474
:102E30001A60174B1A601700AB689F43FBD1C02282
:102E4000231D92011A4321232660A060136023688A
:102E5000002BFCDA0823E1601360F8BD3F232268F1
:102E60001340B342D9D1A3681B051B0D8342D4D1B3
:102E7000EE22E368D20213408B42CED1EDE7C0468A
:102E8000001BB7000040FDBF00C0004000E0004054
:102E900000F000408023024A9B000343D362704746
:102EA0000080054010B5140080221B4BD2051A602B
:102EB00000281AD00123194A1843194BDA61194A1C
:102EC00042401A62596298628022134BD2051A60FE
:102ED0001549164A1160E022D2041A60002C07D16D
:102EE0008022134B12061A6010BD0D4BD861EBE720
:102EF00063011B1B9A008023121912015B049A4282
:102F000000D30C4A0C4B1A60054B5A608022084BC8
:102F1000D2051A60E8E7C04600B00540D3C007B04C
:102F2000008005402D3FF84FFCFF010008200140C4
:102F300000A00540FFFFFF0014340020AA23064A2A
:102F40001B0113602133FF33D3600449044B196024
:102F50005368002BFCDA70470040024000B0FA00D2
:102F6000006002402C4B2D4A70B51A602C4A2D4B44
:102F70002D491A6014008B689C43FBD12B4D2C4EBD
:102F8000B54208D2013E761BB60808CD984723000B
:102F90000134B342F9D1FFF7BFFD264A214B1A6035
:102FA000214A9368DB43DB01DD09002BF9D1402284
:102FB000214B224C224E9A675A671A67DA66B4424E
:102FC00008D223682000002B20D00834FEF7F4FD3F
:102FD000B442F6D31B4E1C4CC022A168300002F054
:102FE00035F8A660FEF7FAFAFEF7AAFDFEF79CFF99
:102FF000164C174EB44208D2013E361BB60808CC18
:1030000098472B0001359E42F9D170BD0834FEF778
:10301000C5FDB442D5D3DDE700E00040BFCDFBFEE7
:10302000FE7F3C0000F0004000C000405827002018
:1030300068270020FFFFFF0100F00140502700201B
:10304000582700200000002000ED00E06827002045
:103050007427002000BEFDE7094A0300106800281D
:1030600005D00849C3188B4207D81360704706483B
:103070000449C31810608B42F7D901204042F5E79C
:103080000C30002000000420803500200020704714
:10309000012040427047C04610B5FFF7DBFFC04635
:1030A0000FB400B5084883B002F040F9049B002B30
:1030B00007D005A91800019101F0DAFA034802F0DF
:1030C00035F90120FFF7C6FF7C9F00108C9F001090
:1030D00010B50148FFF7E4FF909F00107047C0460D
:1030E000F8B557464E464546DE46E0B599460A9B3A
:1030F00007009A460D9B8846934615000B9E9B073A
:1031000010D10C9B9E420DD29D1B14000E005D44FD
:1031100022004B46013431002020B847A542F7D1A8
:10312000B0460B9E002E27D0444675195346AA1B65
:10313000013E985D21004B46B847002EF6D1230092
:103140002C0098460D9B9B070FD55B46E51A0C9B00
:10315000AB420AD94646984622004B463100202011
:103160000135B8470134A845F6D82000F0BCBB466D
:10317000B246A946A046F8BD2C00E3E7F0B54F469D
:103180004646D646C0B584B098460EAB1B78129F13
:10319000994694460D9C109B119EBA0725D4002E8B
:1031A0004BD19C4200D3BFE001223A4092461F2CF3
:1031B00000D9B8E00C9A551E302201E0202C03D033
:1031C00001342A55A342F9D85246002A0DD0A6420E
:1031D0000BD9202C44D00C9A551E302201E0202C13
:1031E0003ED001342A55B442F9D1FA064DD57A05BC
:1031F0003FD4002C39D10F9B102B00D179E00F9BCD
:10320000022B00D18AE030230C9A012413704B4624
:10321000002B3FD02D230C9A135501340C9B624692
:1032200000930397434602960194FFF759FF04B0B9
:10323000E0BCBA46B146A846F0BD012215003D40AB
:10324000AA463A422FD04A46002A02D10C323A42CC
:1032500000D0013E9C42BAD21F2CABD9202E27D9D8
:103260002024FA06DAD57A0503D4A3422DD0A6424B
:103270002BD00F9B102B32D0022B20D0202CCDD066
:1032800030220C9B1B191A700134202CC6D04B46DF
:10329000002BBFD17B070DD43B07BFD520230C9A51
:1032A00013550134BAE79C429FD21F2C00D881E706
:1032B00020249AE72B230C9A13550134AEE7202CD7
:1032C000ACD00C9B1B1901343AE0631E012C92D048
:1032D0000F9A102A2AD0022A2FD01C00D0E7BB0652
:1032E0000ED4202C9AD00C9B1A1901347823137019
:1032F000C4E7BB060DD478230C9A01241370BFE7F2
:10330000202C00D18AE758220C9B1B191A7001341B
:10331000B4E758230C9A01241370B1E70C9A603378
:1033200001241370ACE7202400265EE7023CBA06B5
:10333000E9D40C9A12191C00D8E70C9A924653440F
:1033400062221A709AE7C04610B5002800D110BD5D
:1033500001F0A0FFFBE7C0460B0010B5002802D02B
:1033600049681B68984710BDF0B5DE4657464E4683
:103370004546E0B59BB09B46249B89469846259BD5
:103380000B900C924046424619009A4601F0A3FC6D
:10339000002800D0D8E0012240465146774B5242E7
:1033A00001F094FC002800D0CEE0012240465146B6
:1033B000734B524201F074FC002800D0C4E000229C
:1033C00000234046514601F06BFC002800D0B9E1D3
:1033D000424653460A9209938023289ADB001A40FA
:1033E0000E92289A1A4201D1062326930A9A099B23
:1033F0001600134300D0C7E0289B002500261B05BC
:1034000000D49BE100230D93269A0D9B9A4200DC89
:103410009FE1D01A431E26938023289ADB001A438B
:103420000023002728920D93279B0024BB4200D93C
:10343000DC1B0223289A1A400E92289A134203D0CA
:103440007B427B415B421C400D9B002B07D00A98BE
:1034500009992A00330001F0CAFB0A900991002261
:1034600000234046514601F01BFC002805D0802077
:1034700000068446099961440991289A414B0B9DA5
:1034800013400493269B0A9A0293099B039400928B
:10349000019349465B4628000C9A00F08BF9040022
:1034A000002F62D0289B220098061F23C017984344
:1034B000631C984649465B466530A8470D9B00252E
:1034C000DA179C18DB0F9A465440013F01E0202D8B
:1034D00013D00AAA94461F23200063440A21013511
:1034E0005E1901F03FF93031317020000A2101F0FE
:1034F00039F926000400092EE9D805230693002394
:1035000004930A330393534605970B9F029312AB20
:10351000009342465B46494638000195FFF72EFE70
:103520000E9B0400002B20D00C9BC51A279BAB429E
:103530001BD91E0022005B46494620200135B847B2
:103540000134AE42F6D810E0289B42460493279BF4
:1035500049460393269B0B9802935346009201938E
:103560005B460C9A00F026F9040020001BB0F0BC6A
:10357000BB46B246A946A046F0BDC046FFFFEF7F5E
:10358000FFFFEFFFFFF7FFFF734B099F9C4678009B
:10359000400D604401F0B2FB704A714B01F041FBF9
:1035A000704A714B01F01EFB3B03704A1B0B1A4320
:1035B00004000D00300011006D4B002201F00DFBE6
:1035C0006C4A6D4B01F02DFB02000B00200029001E
:1035D00001F008FB01F0AAFB0D9001F08FFB674A98
:1035E000674B04000D0001F01CFB0022654B01F04D
:1035F000F9FA01F09BFB644A0600644B20002900A5
:1036000001F00FFB040030000D000F9601F076FB77
:103610005F4A604B01F005FB02000B00200029000F
:1036200001F0DBFA02000B0006000F0001F0F9FACE
:10363000320004000D003B003000390001F0D2FAE6
:10364000002210901191544B2000290001F0CFFA74
:103650000022524B01F0C6FA02000B0020002900A4
:1036600001F0C5FA00224E4B01F0BCFA02000B003B
:103670002000290001F0BBFA0D0080210400320077
:103680003B000020C90501F0A8FA02000B00200051
:10369000290001F0A7FA02000B001098119901F01F
:1036A000A6FA0022314B01F09DFA3E4B0F9C9C463E
:1036B00064440022230501F0B4FA05000E00020064
:1036C0000B000A98099901F0EBFA00280AD00D9B2B
:1036D0002800013B31000D930022304B01F087FAA6
:1036E00005000E00C6270D992B0063318F42BF41A4
:1036F00028997F420437090500D495E6334300D169
:1037000082E6099C284A2100284B0A9801F0D6FA43
:10371000002808D000222100254B0A9801F0C0FAA9
:10372000002800D070E6269B002B00D17CE60E9B83
:103730005A1E9341269AD31A269375E6002304272E
:103740000D9371E643460A9380231B065344099365
:1037500042E6002326935FE601FCFFFFFB799F50C2
:103760001344D33FB3C8608B288AC63F0000F03FA4
:103770000000F83F61436F63A787D23F71A37909C7
:103780004F930A400000E03F1655B5BBB16B0240B5
:10379000EF39FAFE422EE63F00002C4000002440A4
:1037A00000001840FF0300002D431CEBE2361A3FD7
:1037B00080842E41F0B54E46DE4657464546E0B57C
:1037C00097B09946209E219F229B83469846079159
:1037D0000C923B0032003000390001F07CFA0028E6
:1037E00000D0A9E1012230003900CA4B524201F059
:1037F00057FA002800D0E1E0012230003900C64B22
:10380000524201F063FA002800D0B7E000223000F5
:103810003900C24B01F05AFA002800D099E000228A
:1038200030003900BE4B01F03BFA002800D090E098
:10383000002200233000390001F032FA002800D0C5
:10384000B1E000230D93249B5B0501D40623984629
:1038500008AB9C461722002430234146624404E012
:10386000013413550139202C01D00929F8D8884694
:103870003000390001F05AFA4346DA00A94B05003E
:103880009B181A685B680892099301F037FA0200E6
:103890000B003000390001F0A0F9089A099B01F0F3
:1038A000C0F90A900B9101F065FA824601F022FA04
:1038B00002000B000A980B9901F08FF900229A4B35
:1038C0000A900B9101F002FA002800D1C0E0012318
:1038D0009C46E244504601F00DFA02000B000898A5
:1038E000099901F0E3F9002802D000239A46013536
:1038F0004346002B6AD008AB17269C4608956644C1
:10390000554614E001235B4243440A2128009A46AD
:1039100000F028FF013430313719397028000A21AE
:1039200000F020FF092D00D8D0E0D0460500202C63
:10393000E8D10EAB98460323249A1340012B00D103
:1039400096E02023249A01930392239A43460292FD
:103950001EE0249B58460493239B009601970393F3
:1039600043460C9A029307994B46FFF7FDFC17B0AC
:10397000F0BCBB46B246A946A046F0BD249B5B07FF
:103980000ED40322694B2499019203912399029149
:10399000009358464B460C9A0799FFF7A1FBE6E7C0
:1039A0000422634BEFE73B0032000020002101F0CE
:1039B00014F9012306000F000D9344E7249B0393A1
:1039C000239B0293042301935A4BE1E7280001F063
:1039D00095F902000B003000390001F0FEF8524B5F
:1039E000002206000F0001F05BF90EAB984600289C
:1039F0000AD10022300039004B4B01F067F9002852
:103A000002D1EB0700D50135202C94D008AA9446AA
:103A10001723280063440A2101341E1900F07AFE9E
:103A20003031280031700A2100F074FE051EEBD100
:103A30000323249A1340012B1BD0202C00D180E7B4
:103A40000D9B002B35D02D224146631C0A5579E78A
:103A500000220A980B99344B01F022F9002800D07B
:103A600046E75346002B51D101239C46E2443FE7F1
:103A70002024239B002BE0D00D9B002B03D1249A04
:103A80000C33134202D0239B013B2393239BA3427D
:103A9000D3D908AB9C46172230236244202C00D196
:103AA0004FE72399013413558C42C6D0202CF8D10E
:103AB00047E7249B5B0724D4249A2300120700D4F1
:103AC00040E72022414601330A553BE75746089D0F
:103AD000202C00D12DE7220030214046002F09D0B4
:103AE0000132B154202A00D123E7D3431B191B18FC
:103AF000002BF5D10EAB98462E234146541C8B5417
:103B000082E72B224146631C0A551BE7DB0700D4E2
:103B1000EEE6A9E7FFFFEFFFFFFFEF7F65CDCD41A9
:103B200065CDCDC198A100100000E03F9C9F001022
:103B3000A09F0010AC9F0010249B0393239B029333
:103B400003230193004B23E7A89F0010F0B5DE4646
:103B50004E4657464546E0B59FB01C00289B91460F
:103B60000993C94AC94B8B4608901A60002900D1B5
:103B700018E2002320789A46002800D11AE2260095
:103B80001D005C460AE02A006F1C4B46089D210080
:103B9000A8473D0001363078002870D02528F2D1A2
:103BA00010239B46083B9A46043B9846023B002163
:103BB0009C46721C107816000300203BDBB2102BD1
:103BC00003D8B34F9B00FB589F460300303B092BA3
:103BD00032D900230A932A2868D0002398462E2839
:103BE0003ED00300683BDBB2122B1CD8A94A9B00D5
:103BF000D3589F46012301321943DBE76346013264
:103C00001943D7E7434601321943D3E75B460132F4
:103C10001943CFE7534601321943CBE780235B00BA
:103C20007078194301360300253BDBB2532BAAD829
:103C3000994A9B00D3589F4600270300B800C0193B
:103C400001364000C018337830381A00303A070087
:103C5000092AF3D90A901800002398462E28C0D1CB
:103C600080237078DB0019430300303B721C092B62
:103C700000D8A1E12A2800D1B2E11600B1E7A3469D
:103C8000AA462C00D14503D801235B424B449A46F7
:103C90004B46524659460020089DA84720001FB0B9
:103CA000F0BCBB46B246A946A046F0BD099B40CB3E
:103CB0000A96002E03DB50780993561C8DE72838AE
:103CC000014370420A9009935078561C85E7782882
:103CD00000D1DFE1582800D14CE26F2800D14FE33A
:103CE000622801D100F030FC10230A009A430B92A5
:103CF000692801D000F0A9FC0A230C934B0500D5DC
:103D0000D0E10B9A802311009B0019408B461A4288
:103D100000D0A1E2802311005B0019408A461A42BC
:103D200000D0B6E313005B0600D5EDE2130009995D
:103D30001B0601D400F076FC08C91BB2D8171A186C
:103D4000424092B209919346DA0F1292002B09D1A8
:103D5000802310220B99DB000B4091430B91002B29
:103D600000D0E4E20B9A6123920600D541230EA90C
:103D70001F228C46DBB262440A3B5F461395A34682
:103D800055460C9CB2460D9316000AE03033DBB268
:103D900001357355A74200D2EDE2202D00D1EAE2B1
:103DA00007002100380000F0DDFCCBB20929EDD975
:103DB0000D9A94466344DBB2EAE780239B00707857
:103DC000194301362FE77078682800D1CDE18023B0
:103DD0000136194327E770786C2800D1BFE18023B2
:103DE0005B00194301361EE7462800D19BE10722FC
:103DF000099B0491073393430A9A190003924246A0
:103E000002920CC908980092019309912A004B462E
:103E10002100FFF7CFFC01360500BCE62A006F1C2D
:103E20004B46089D21002520A84701363D00B2E6FB
:103E30008B0700D4ADE1099B2A009A466B1C98467B
:103E4000534601CB21009A46089F4B46C0B2B84763
:103E50000A9B9C466544012B00D886E2089B474696
:103E6000B04626004C4699463A00230001373100FF
:103E70002020C847AF42F7D1A146534634004646FA
:103E80000993013687E6C0464D3B001010340020F0
:103E9000B49F0010F89F001044A00010099B04CBB1
:103EA0009B4643460992002B00D1C6E013789C46FE
:103EB000002B00D1BDE34346013B099A0133D018E2
:103EC0000A9F130001E0834203D05A780133002A8D
:103ED000F9D1099A0A979B1A0B9380230A00DB00F9
:103EE0001A400C92194204D00B9B434501D943461A
:103EF0000B9302231A000A400D920B4200D187E176
:103F00006046002800D168E10C9B002B00D10DE138
:103F1000A844C246099B57465B1B9846089BB2467D
:103F20002A0026004C46994609E023003100551C22
:103F3000C8474346585D002800D126E12A00974231
:103F4000F3D1A1463D00340056460D9B002B00D016
:103F500043E15B46013609931DE6099B1A0008CA36
:103F60009246002B48D0212211438B460EA884464E
:103F70001F216144099500220F27A4460D0002E08D
:103F8000202A0CD00B003C001C4020003730092CAC
:103F900000D807380132A85419090F2BF0D864460D
:103FA000099D32E0DC4B2078089300239A460028D4
:103FB00000D0E4E5002465E6434606000A9F980029
:103FC000C0180132400080191678030030003038E4
:103FD000303B0928F3D93000984616000A9700E6CE
:103FE000099B023604CB9046D2434046D21710407C
:103FF000804609933078F4E510220800904311328E
:104000001043834600224905B0D55B46069308233A
:10401000059343460493102303930023029316ABA6
:10402000019200932A004B4621000898FFF7A6F85A
:104030005346050001360993ADE513789C46002BE5
:1040400000D1F7E202235B4237E7202302009A43C4
:10405000472A04D180231B01194302239843452892
:1040600001D1202319430722099B0491073393436D
:104070000A9A19000392424602920CC908980092CB
:10408000019309912A004B462100FFF76DF9013693
:10409000050080E510230C930C230A009A430B9231
:1040A0004B0503D501230B9A9A430B92692800D143
:1040B00027E6642800D124E60B9A802311009B0098
:1040C00019408B461A4200D066E1802311005B0044
:1040D00019408A461A4200D039E213005B0600D527
:1040E0003CE113001B0600D4A6E2099B04CB12049A
:1040F000120C934609935B46002B00D09AE10B9A71
:104100001033110099430B91520500D492E1002322
:104110009A460B9B06930A9B0593434604930C9B7C
:10412000039300230CE12023194360E6099B0A9ABC
:104130005B1B98464B4691461F00B2462600089CE2
:104140002A003B003100A04743460135585D002856
:10415000F6D14A463400B94656460A92F5E6C023DF
:104160009B00B078194302365DE5C023B07819434F
:10417000023658E50C230A009A4314331A43103BC5
:104180000B920C934B058DD496E7A146340056460E
:10419000DBE60A9A012A00D853E26B1E9F18089B9F
:1041A000B04626004C4699462A00230001353100CE
:1041B0002020C847BD42F7D1A14634004646099B9E
:1041C0003A0001CB210098467D1C4B46089FC0B2A7
:1041D000B847434601360993DDE40B9B0A9AA8468B
:1041E0009A4200D8B5E694466544ED1A089B4746C6
:1041F000B04626004C4699463A002300013731006C
:104200002020C847AF42F7D1A14634004646A0E679
:104210000B9A0A99531C914200D814E24B199B1A2D
:104220001F00089BB24626004C4699462A002300F0
:10423000013531002020C847BD42F7D10A9BA14675
:1042400001330B93099B34001B7856469C4660460D
:10425000002800D058E67CE60722099B07339343E9
:10426000013294469C4462465F6809921A68FB17C3
:104270001093119310981199030053400E930B0063
:104280007B400F9394460E9A0F9B121A8B410E920D
:104290000F93FB0F6246129300233A439B463DD097
:1042A0000B9A6123920600D541230022DBB20EA9AE
:1042B0000A3B8C4692460D9343461F326244139547
:1042C000159655460E9E0F9FA24690460C9C149341
:1042D0000CE03032D2B2434601355A55BB4500D1CD
:1042E0008AE1202D00D18AE106000F002200002380
:1042F0003000390000F074FAD2B2092AE9D90D9BD6
:104300009C466244D2B2E6E7FF23099904C91340F0
:104310001A00099117E5C046DD3000100B9A1033E2
:10432000110099430B915205BAD500239A460B9B75
:1043300006930A9B0593434604930C9B0393129B9D
:1043400002935346019316AB2A00009321004B467B
:104350000898FEF713FF013605001CE4FF22099BB5
:1043600002CB11408B460993C5E653464546099357
:104370000136FFF710FC56465C46AA46139DD6E769
:1043800008230C930B910B99642800D084E60B9BB7
:104390005B0500D586E6B4E40722099B0733934307
:1043A000013294469C44624609921A685B68100088
:1043B0009B4613005A46134307D10B9A1033110042
:1043C00099430B91520500D5A1E60B9A6123920601
:1043D00000D541230022DBB20EA90A3B8C4692464F
:1043E0000D9343461F3262445F461295A3465546DD
:1043F0000400B24690460C9E13930DE03032D2B2C8
:10440000434601355A550023BB4200D100E1202D1F
:1044100000D100E104000F00320000232000390029
:1044200000F0DEF9D2B2092AE8D90D9B9C4662441D
:10443000D2B2E5E70B9A6123920600D54123DBB2A5
:104440000EA90A3B1F228C460D93230062445C4652
:104450001295170055469B46B2460C9E08E0303335
:10446000DBB201357B55B4420ED3202D0CD00400B5
:104470003100200000F076F9CBB20929EFD90D9A6E
:1044800094466344DBB2ECE756465C46AA46129D6E
:104490003FE6099B1A0008CAD91713925A184A40D6
:1044A0009246DA0F1292002B08D1802310220B992A
:1044B000DB000B4091430B91002B2BD10B9A612316
:1044C000920600D541230EAA1F279446DBB20A3B71
:1044D0000D9567445D460993A3465446B2460C9E2B
:1044E00008E03033DBB201357B55B4420ED3202DCA
:1044F0000CD004003100200000F034F9CBB20929BF
:10450000EFD9099A94466344DBB2ECE756465C4621
:10451000AB460D9D0B9B2A0006930A9B2100059339
:10452000434604930C9B08980393129B0136029315
:104530005B46019316AB00934B46FEF71FFE139BA1
:1045400005000993FFF727FB02230C931AE7099B49
:1045500004CB92461293002A08D1802310220B9993
:10456000DB000B4091430B91002B2BD10B9A612365
:10457000920600D541230EAA1F279446DBB20A3BC0
:104580000D9567445D460993A3465446B2460C9E7A
:1045900008E03033DBB201357B55B4420ED3202D19
:1045A0000CD004003100200000F0DCF8CBB2092967
:1045B000EFD9099A94466344DBB2ECE756465C4671
:1045C000AB460D9D0B9B2A0006930A9B2100059389
:1045D000434604930C9B08980393002302935B4685
:1045E000019316AB00934B46FEF7C8FD129B0500E6
:1045F00009930136FFF7CFFAB44200D871E6149B55
:1046000054460E960F97AA469846159E139D8EE621
:10461000A64200D8FBE6139B56469846AA465C463F
:10462000129D76E508C9D8171A1842400991FFF77C
:104630008AFB00230B9350E4099B04CB9346099318
:1046400059E52F00BBE50B9301E6063B0C939AE678
:1046500000B585B003910121029000930348130037
:104660004A4202A9FFF772FA05B000BD59330010A3
:1046700010B5094A0300146884B0002C08D0012248
:1046800000910648524203A9A047012004B010BD82
:1046900000F04CFE0020F9E71034002049330010F0
:1046A00001480421014B1847801E0020D14600100C
:1046B000142310B50100188804331B88984710BDD7
:1046C000162310B50100188802331B88984710BDC7
:1046D000F8B54746CE4680B50F1E19D0142399462B
:1046E000043304000025012698464B4618884346AB
:1046F00021681B88984701C4431E984101354042F8
:104700000640AF42F1D13000C0BCB946B046F8BD5A
:104710000126F8E7124A936F9B0815D29066D1667E
:10472000002905D0FFE7FFE7FFE7516F106F7047E3
:1047300004B580210906C2175140002800D0C843A3
:1047400005F00AFB002104BDF0B5146E556E576FDD
:10475000166FFFF7E3FF1466556657671667F0BDDF
:10476000000000D0114A936F9B0813D21066516667
:10477000002905D0FFE7FFE7FFE7516F106F704793
:1047800004B5002801D00020C04305F0E5FA00215F
:1047900004BDC046F0B5146E556E576F166FFFF727
:1047A000E5FF1466556657671667F0BD000000D038
:1047B00094464A4A926F9208624601D228E0C04667
:1047C000F0B5464E346E756E776F366F00F020F898
:1047D0009446424A14665566576716676246F0BDAE
:1047E00094463E4A926F9208624601D254E0C04617
:1047F000F0B53A4E346E756E776F366F00F04CF848
:104800009446364A14665566576716676246F0BD89
:10481000002B24DB11D000293EDA00B5C943404209
:1048200000D1013100F038F8C943404200D10131D4
:10483000DB43524200D1013300BD002AEBD10028F6
:1048400001D1002905D00020C90FC90701D1C043FB
:10485000410800B505F050FA0022002300BD00B564
:1048600000290ADBDB43524200D1013300F014F887
:10487000C943404200D1013100BDC943404200D18B
:104880000131DB43524200D1013300F005F8DB4334
:10489000524200D1013300BD002923D1002B18D191
:1048A000002A0CD0BC460D4F38667A6600210023E2
:1048B000FFE7FFE7FFE77A6F386F6746704700282A
:1048C00001D00748010000B505F016FA00220023C8
:1048D00000BD02000B00002000217047000000D046
:1048E000FFFFFFFF002B00D0BFE0130C28D1002AF0
:1048F000E7D080B4114F39667A66FFE7FFE730B43E
:10490000040C7B6F396F1B0423433B667A66FFE719
:10491000FFE7FFE7C04684B27B6F3D6F1B04234374
:104920003B667A66FFE7FFE7C04600232C042D0CA8
:104930007A6F386F00196941B0BC7047000000D031
:10494000F0B594460025140E01D112020835140F5B
:1049500001D112010435940F01D192000235D40F18
:1049600001D152000135D40B0134254F7C66254C12
:104970003C660E0C93B2FFE7FFE7FFE73C6F664330
:10498000360C7703BE467343DF0B5B04C01AB94194
:10499000130C7343DB18C91ACE086643360CB644B1
:1049A00093B273431F0F1B01C01AB941130C734319
:1049B0001F0B1B05C01AB941860D8F023E4366438B
:1049C000360C092D24DB520A7243801A7703460AFB
:1049D0006643360C16235B1BDE40DF40BF1964467E
:1049E0006643821B7046043506330100D940A84057
:1049F000C01900D30131A24206D20023F0BD00004D
:104A0000000000D0FFFFFFFF121B0130F3D3F1E7DE
:104A100009277F1BFE406446A2B27243801A00D26F
:104A20000139220C7243130C1204821A99410B00B3
:104A30007046043513370100F940A840801900D3AF
:104A40000131002B02D1A2420AD2F0BD013000D3C5
:104A50000131121BFAD2013BF8D1A24200D2F0BDC3
:104A6000013000D30131121BF7E7F0B51C0C00D068
:104A700080E00CB400251C0A04D11B02160E33433F
:104A8000120208351C0B04D11B01160F334312010F
:104A900004359C0B04D19B00960F334392000235E2
:104AA000DC0B02D192185B4101351C009718644160
:104AB0000134464F7C66464C3C660E0CFFE7FFE730
:104AC000FFE7C0463C6F6643360C7703BE4697B29D
:104AD0007743C01B00D20139C01B00D201399FB2FD
:104AE0007743C91BC91B170C77437E04FF0B801B40
:104AF000B941CE086643360C0C2D33DBB644120B9D
:104B00001F053A431B0B97B27743C01B00D20139F4
:104B10009FB27743C91B170C77433E043F0C801BA1
:104B2000B941860D8F023E43664329277F1BFE4015
:104B30000C3D7746AF40BF1930BCA2B2ABB2724356
:104B40007343801A9941220C7243130C1204801A89
:104B5000994102000B000137001BA941F9D2781ED0
:104B60000021F0BD0C277F1BFE4077467F0BAF4036
:104B7000FF19E0E700245D1C07D0144F7D663966FD
:104B8000FFE7FFE7FFE7FFE73C6F95B29EB26543A3
:104B90006643401BB141150C1E0C65436643360449
:104BA0002F0C3E432D04401BB141994204D2020018
:104BB0000B0020000021F0BD01D19042F7D3801AF4
:104BC000994101349942F2D3F6E70000000000D089
:104BD000FFFFFFFF48404140484018B4134B5B685B
:104BE000019308BD18B4114B1B68019308BD94468E
:104BF0000F4A926F920805D2624618B40B4BDB68DD
:104C0000019308BD0A4AF0B5146E556E576F166FC2
:104C10006246FFF7F2FF064A146655665767166745
:104C2000F0BD18B4014B9B68019308BD802800209B
:104C3000000000D0FFB550404240504059404B402A
:104C4000594000E0FFB5154F4C00640D03D0BC4245
:104C500004D10C0314D80020090D09055C00640D73
:104C600003D0BC4204D11C030AD800221B0D1B0533
:104C700001264B4009D44B4003D58B4200D18242E0
:104C8000FFBD9942FCD19042FFBD0B43DB180343AB
:104C90001343F5D0C9434918FFBD0000FF070000CA
:104CA00000B5FFF7CFFF804100BDC04600B5FFF75C
:104CB000C9FF01D9002000BD012000BD00B5FFF7EC
:104CC000B9FF01D9002000BD012000BD00B5FFF7EC
:104CD000B1FF804100BD012040054A00121804D8F0
:104CE0005A00121801D80020704701207047002098
:104CF000704700000021002805D17047C1174840C7
:104D0000401AFAD0C90713B5064B1B6898470CBC6C
:104D1000441CA2401005120B0349091B0905194345
:104D2000114310BD3C3400201F04000010B54C009E
:104D3000620D8023D218DB00D21A5B057E2A10DDBB
:104D40009E3A13DACC170903490819435242D1405D
:104D5000640001341532202A05DAD040084360434C
:104D600010BD002010BD0846604310BDC80FC0181C
:104D7000013810BD18B4024B5B6A019308BD0000F6
:104D80008028002010B50148FEF78AF9E8A100103C
:104D9000132370B51D78012D11D035DD1C48FFF7A8
:104DA0008FFC1C4C01008022200000F04FF9022DE6
:104DB00027D01948FFF77CFC184B186070BD184BC2
:104DC000144C23606360A360E36023616361A361AB
:104DD000E36123626362A362E36223636363A363A9
:104DE000E36323646364A364E36423656365A36589
:104DF000E36523666366A366E36623676367A36769
:104E0000E367084BA364D4E7024C064BA364D0E7E6
:104E100053440000802800204C3300003C34002024
:104E2000854D0010294E001007B5604601880A0A1A
:104E30000230DF2AFAD1C9B2820804D3028840883E
:104E40000004104300E00068014A5050039007BD81
:104E50008028002051434343C9188C46110C83B26B
:104E60004B4310B4040C614392B280B2504362438E
:104E70001C041B0C001910BC59411304120CC0185F
:104E800051416144704700004840414048400E4B4A
:104E90005B6818470C4B1B6818470C4A936F9B08BC
:104EA00002D2094BDB681847F0B5146E556E576F88
:104EB000166FFFF7F6FF054A1466556657671667C3
:104EC000F0BD014B9B68184740340020000000D023
:104ED00007B548404140484001E0C04607B54200A0
:104EE000120E03D0FF2A03D1420218D8C00DC0050C
:104EF0004A00120E03D0FF2A03D14A020FD8C90D6F
:104F0000C9050122414005D4414001D5814207BD78
:104F1000884207BD0143491801D0C043001807BDAE
:104F200000B5FFF7DBFF804100BDC04600B5FFF7CD
:104F3000CFFF804100BD491A002807D108467047BD
:104F4000C10FC90700D54042002817D0F44603B46A
:104F50000B4B1B68984706BC81409E38404280310D
:104F600007D20B0607D04900490AC0051043084381
:104F700060470130F8E7490A8902F5E77047000009
:104F80003C340020014B5B6A18470000403400208D
:104F9000014BDB6F184700004034002010B501487A
:104FA000FEF77EF8049F0010132310B510481C78FC
:104FB000FFF786FB0100012C0AD003DD80220D489B
:104FC00000F044F80C48FFF773FB0C4B186010BD61
:104FD000084C5422200000F039F82300084A80339E
:104FE0002168002900D122600434A342F8D1E9E706
:104FF00053460000403400204C3300003C34002075
:105000009D4F001010B5040004F06CF8002804D087
:10501000034B04199C4200D810BD0248FEF740F82B
:105020000000042000A2001010B504F065F810BDC7
:1050300001480421014B1847901E0020D146001062
:10504000014B1B6818470000901E0020014B5B6855
:1050500018470000901E002010B5FFF7D3FF10BDC9
:1050600010B5FFF7E1FF10BD10B5FFF7DDFF10BD74
:10507000030010B5080011001B68984710BDC0461A
:10508000F0B546464F46D646C0B5437D80460E0035
:105090001700002B46D0002A3FDD4B1E9946244BBB
:1050A0000125002400209A460DE04B461B5D0D3B78
:1050B0005A425341325DDBB20A2A0BD02B00013435
:1050C00001359F421ADD002CEFD14346325D1B7D36
:1050D0000A2AF3D1002BF1D1A04204DA4346211A67
:1050E0001B6830189847434650461B680221984772
:1050F000013428002B0001359F42E4DC874204DDA7
:105100004346391A1B6830189847F619013E337820
:105110000D3B5A42534142461375E0BCBA46B14674
:10512000A846F0BD0368110030009847F5E7C04677
:1051300084A20010F0B5C6460C000968060000B550
:10514000802906D04B1C23606418267180BCB846A9
:10515000F0BD0F4B1D68002D16D0231D98460D4F36
:1051600002E02D69002D0FD02B68002BF9D03B6891
:10517000002B01D0AB42F4D1280041462268FFF752
:105180007FFF2D69002DEFD101230021DBE7C04611
:105190000030002008300020F0B5DE4657464E466D
:1051A0004546E0B585B017001C0006000D00FDF770
:1051B00003F90023304A12184B41002B58DB2F49CA
:1051C00008008A4604F000FE01906B1C03D13000F9
:1051D00004F018FC0500002C25D1294B9846294BDA
:1051E0001C68002C15D0002F20D1274F02E0246925
:1051F000002C0ED02368002BF9D03B68002B01D087
:10520000A342F4D120002A003100C0472469002CB9
:10521000F0D1019B002B27D105B0F0BCBB46B246B4
:10522000A946A046F0BD194B9846D8E7164B9946BB
:1052300002ABDF1D0A239B4602E02469002CE8D064
:105240002368002BF9D04B461B68002B01D0A342EA
:10525000F3D12A0031002000C0475B46012239000B
:1052600020003B70C047E8E7504604F03DFDD3E71F
:105270000122074B5242A2E740420F005027002074
:1052800081500010003000200830002071500010C4
:10529000FFFFFF7FF0B5CE46474680B583B06B4633
:1052A0000600DD1D2870FDF787F800231A4A121842
:1052B0004B41002B2BDB19490800884604F084FD84
:1052C000174B81461C68002C14D0164F02E024694D
:1052D000002C0FD02368002BF9D03B68002B01D0A5
:1052E000A342F4D1200001222900FFF7C9FE24695E
:1052F000002CEFD14B46002B05D1300003B0C0BCD1
:10530000B946B046F0BD404604F0EEFCF5E7012298
:10531000054B5242CFE7C04640420F0050270020C5
:105320000030002008300020FFFFFF7F70B5040030
:1053300004F068FB00230100050001222000FFF7B4
:105340002BFF084B1C68002C06D06368002B05D08F
:1053500098472469002CF8D1280070BD2469002CDE
:10536000F3D1F9E7003000200A4A1368002B05D179
:105370000CE01A001B691032002B07D09842F8D1BC
:10538000002902D103691360016170470029FCD034
:105390001060FAE700300020F0B5CE46474680B5F1
:1053A000A5B004000D00FDF707F800232A4A1218E3
:1053B0004B41002B49DB294E300004F005FD002352
:1053C0000700039322002B00254803A9FFF740F9AB
:1053D000039B8046002B14D1224B1C68002C06D066
:1053E0006368002B0BD098472469002CF8D1002F5C
:1053F00027D1404625B0C0BCB946B046F0BD2469AF
:10540000ECE7184B1D689946002D22D0164C02E09F
:105410002D69002D11D02B68002BF9D02368002BAB
:1054200001D09D42F4D1039B28001A0004A90193E6
:10543000FFF726FE2D69002DEDD14B4603951C6824
:10544000CCE7300004F050FCD3E70122074B524276
:10545000B1E70395CBE7C04640420F00502700203C
:10546000355100100030002008300020FFFFFF7F82
:105470000FB400B583B004A901C90191FFF78CFFF7
:1054800003B008BC04B0184710B500F0C7F800F02E
:10549000C1FA012010BDC046F0B50D1E15DD0E4B42
:1054A0000D271A680D4B4519D31859424B410C4929
:1054B0005B005E5E20210478A64207D09369194202
:1054C000FCD101301460A842F5D1F0BD93691942B6
:1054D000FCD11760F2E7C046603500200080FCBFB9
:1054E0005C35002030B504000D1E26DD00201021A3
:1054F0001B4B013C1A689369194219D10130936919
:105500001942FCD1136823548542F4D1154B1B6812
:10551000002B0CD050239363516B183B34320B405B
:105520001100802252010A431360002815D030BDBB
:105530000C4B1B68002BEDD1F7E70A4B1B68002BC7
:105540000BD050223821064B1B689A635A6B3433B8
:105550001140802252011343196003204042E6E7C4
:10556000603500205C2F0020064B10B51B68002B17
:1055700006D00021044A12689163044A10689847D3
:1055800010BDC0465C2F002060350020642F002035
:105590001D4BF0B51A68C64698461C4B0E00D31832
:1055A00059424B411A4F14331C00050000B53B68AB
:1055B000002807D0002B11D0164B3D601E6080BC28
:1055C000B846F0BD002BF7D0906300212000FCF717
:1055D0002FF820001049FCF781F9EDE720000E4973
:1055E000FCF75EF801212000FCF722F84346502228
:1055F00038211B689A635A6B343311408022520160
:1056000013431960D8E7C046603500200080FCBF16
:105610005C2F0020642F0020695500100C4B10B542
:105620001B780C4B0C4C1B780C4B02210020236088
:10563000FBF7F8FE02210120FBF7F4FEE1212068D0
:105640004902FDF7A5F901210548FFF78DFE10BDC0
:1056500070AA001074AA00106035002000400340BA
:10566000A01E00207047C0460022014B1A707047F0
:105670007A3500204B790020FF2B0BD18B79002B42
:1056800008D1CB79012B05D1082A03D98A78024B9E
:1056900009301A707047C0467A35002001207047E3
:1056A00070B5012909D115495379107909781B0280
:1056B00003430020994202D070BD0120FCE75378DB
:1056C000012B08D0022BF7D1002064220021FDF726
:1056D000E9FB0120F0E79478D27805001202144328
:1056E000D20502D5620A93401D000548FEF7E0FF8F
:1056F0007F210300214028009847C0467A350020CA
:10570000554200000123037000487047C8A20010F2
:1057100048780B788A7800021843120410439622C6
:10572000CB7810B51B060343D200934200D010BDC6
:105730000348FEF7BDFF0021030008009847C0465C
:1057400055420000024B1860024B19607047C0467A
:10575000602F0020682F002010B5024B1878FBF74F
:1057600079FF10BD7B350020114B70B51A68002AF7
:105770001AD0EFF3108172B610680028FCD0BFF386
:105780005F8F00220B48596002701B68BFF35F8F68
:105790001A6081F3108800240025074B1878FBF766
:1057A00059FF2900200070BDFA240025A400F4E769
:1057B0001C3400207C3500207B35002070B50400AF
:1057C00000200E0001F002FB002835D0002001F07F
:1057D00015FB002830D0FCF7EFFD0023184A121803
:1057E0004B41002B24DB174D280004F0EDFA002874
:1057F00022D0002001F0EAFA00280BD1012000217C
:105800000324404200F0CCFC6442280004F06CFA0F
:10581000200070BD002001F0F1FA0028EED0210038
:105820003200002001F0F6FA041EEED1033CECE752
:105830000122054B5242D6E703246442E8E7C04602
:1058400040420F0044350020FFFFFF7FF8B5DE46E1
:10585000574680B505000C00FCF7AEFD0023364A24
:1058600012184B41002B5ADB344908008A4604F0D9
:10587000ABFA002803D1C0BCBB46B246F8BD00203D
:1058800001F0A4FA00284ED00026002C43DD2C4B5A
:105890009B4614E0A919002001F030FB070001200D
:1058A0000021404200F07CFC002001F0EBFAFCF704
:1058B00083FD234BF61918605960B4422BDD00209C
:1058C00001F036FBA71B0200B84200DD3A00002AB7
:1058D000E0D101200021404200F062FC002001F0F4
:1058E000D1FA002001F072FA002814D0002001F053
:1058F0001FFB0028E1D1FCF75FFD5B460F001A6833
:105900005B68002184460F4812184B419F4202D821
:10591000D3D19445D1D9504604F0E6F9ABE7012242
:10592000094B5242A0E700200021054B1860596046
:10593000504604F0D9F99EE740420F00443500205C
:105940007828002020A10700FFFFFF7F10B5244C1E
:1059500084B00021200004F00FFA00281CD1214B54
:105960001A68002A16D0EFF3108172B6106800286A
:10597000FCD0BFF35F8F01241B48596002781B687D
:10598000D2B20470BFF35F8F0020186081F31088DB
:10599000002A0AD004B010BD01200021404200F0CE
:1059A000FFFB200004F0A0F9F4E7FCF7F3FA040091
:1059B000FCF702FDFA220023920012184B41002B43
:1059C00009DB012102910021019108492000009189
:1059D000FCF7E4FADEE70122054B5242F1E7C0464C
:1059E000443500201C3400207C350020695700100D
:1059F000FFFFFF7F054B10B51868002804D0044B4B
:105A00000022196801F044F810BDC046602F002044
:105A1000682F0020D02310B51B0684B01C68FCF74B
:105A2000B9FAFCF777FBA04202D0002004B010BD09
:105A3000264B1B7801F066FC2548FCF7AFF80120E7
:105A4000FCF790F8FF23234C234920701840FBF704
:105A500027FE20780121FBF7EBFD0520FBF702FE76
:105A6000002822D1FCF796FA0400FCF7A5FCFA22E4
:105A70000023920012184B41002B22DB01210291DE
:105A800000210191154920000091FCF787FA0822B6
:105A9000040000211248FFF7D3FA002CC5DB11489F
:105AA0000121FFF761FC0120C0E700220E4905201B
:105AB000FBF720FEFBF7A0FD01000948FCF79AF870
:105AC000EDE70122094B5242D8E7C04678AA001000
:105AD000443500207B3500204D59001069570010D7
